:020000040800F2
:1000000058040020450100081F0F0008A90E000831
:100010001D0F0008B1010008E912000800000000EF
:10002000000000000000000000000000430F000876
:10003000B301000800000000410F0008450F000850
:100040005F0100085F0100085F0100085F01000810
:100050005F0100085F0100085F0100085F01000800
:100060005F0100085F0100085F0100085F010008F0
:100070005F0100085F0100085F0100085F010008E0
:100080005F0100085F0100085F0100085F010008D0
:100090005F0100085F0100085F0100085F010008C0
:1000A0005F0100085F0100085F0100085F010008B0
:1000B0005F0100085F0100085F0100085F010008A0
:1000C0005F0100085F0100085F0100085F01000890
:1000D0005F0100085F010008DD1200085F010008F1
:1000E0005F0100085F0100085F0100085F01000870
:1000F0005F0100085F0100085F0100085F01000860
:100100005F0100085F0100085F0100085F0100084F
:100110005F0100085F0100085F0100085F0100083F
:100120005F0100085F0100085F0100085F0100082F
:10013000DFF80CD000F02AF8004800470913000847
:10014000580400200648804706480047FEE7FEE7BF
:10015000FEE7FEE7FEE7FEE7FEE7FEE7FEE7FEE777
:10016000990F000831010008D2B201E000F8012B1C
:10017000491EFBD270470022F6E710B513460A4627
:1001800004461946FFF7F0FF204610BD064C074D08
:1001900006E0E06840F0010394E807009847103457
:1001A000AC42F6D3FFF7C8FFB0130008D013000825
:1001B000FEE770472DE9F05F90F821100024022936
:1001C00003D004218163012485E001680A6822F0DC
:1001D0000E020A6001680A6822F001020A603F4EBE
:1001E0003E4FB215DFF8F4C0DFF8F090DFF8ECA076
:1001F000DFF8E8B0DFF8E4E00168783F13011502AA
:10020000ACF1640CA9F15009AAF13C0AABF1280B3E
:10021000AEF1140E4FF48018B14227D9B9420ED076
:10022000614512D049451DD0514518D0594518D0C7
:10023000714501D1424615E0294EB14201D101225A
:1002400010E0274E1436B14201D110220AE0244EAC
:100250002836B14206D0224A3C32914201D11A4698
:1002600000E02A461E49091F0A602BE0B94213D05C
:10027000614517D0494522D051451DD059451DD063
:10028000714501D142461AE0B14202D14FF080726D
:1002900015E0134EB14201D1012210E0104E143688
:1002A000B14201D110220AE00D4E2836B14206D0EB
:1002B0000B4A3C32914201D11A4600E02A460749D6
:1002C00080394A60012180F82110002180F8201037
:1002D000416B01B188472046BDE8F09F8000024095
:1002E0000804024070B5044600F00CF90546601C95
:1002F00002D004480078044400F004F9401BA042F6
:10030000FAD370BD040000202DE9F84FDFF8B8A142
:1003100000220AF1040B144601274FF00F090BF1DC
:10032000040E00BF0B6807FA04F52B40AB4274D1F2
:10033000DFF898C14E68A6EB0C0866452BD00DDCA3
:10034000032E34D005DC36B3012E19D0022E2FD166
:100350001BE0112E16D0122E2AD119E0B8F5881FF5
:1003600019D006DCB8F5803F15D0B8F5801F1FD135
:1003700011E0B8F5001F0ED0B8F5041F18D10AE03F
:10038000CA6815E0CA68121D12E0CA6808320FE098
:10039000CA680C320CE08A682AB1012A4FF00802C0
:1003A00003D0456104E0042202E0056100E0002280
:1003B000FF2B01D8064601E000F104064FEA840550
:1003C00001D9A5F12005D6F800C009FA05F82CEAF4
:1003D000080C02FA05F54CEA050CC6F800C04D6899
:1003E000ED006AD53A4DAE6946F00106AE61AD69E1
:1003F00024F0030605F001050095364D06EB050CCB
:10040000DCF80850A6074FEA167809FA08F6B54353
:10041000314EB04202D100261AE04EE02F4EB042DB
:1004200001D1012614E02E4EB04201D102260FE088
:100430002C4EB04201D103260AE02B4EB04201D12E
:10044000042605E0294EB04201D1052600E006262B
:1004500006FA08F62E43CCF808604D68DAF800601A
:10046000ED03554601D51E4300E09E432E604D68C6
:10047000AD0305D5DBF800601E43CBF8006004E057
:10048000DBF800509D43CBF800504D68DEF800606B
:10049000ED02754601D51E4300E09E432E604D6877
:1004A000AD0205D5084D0C352E681E432E6004E0C4
:1004B000054E0C3635689D433560641C102CFFF4E6
:1004C00031AFBDE8F88F00000004014000001110BA
:1004D000001002400000014000080140000C0140F3
:1004E000001001400014014000180140001C0140B0
:1004F0008068084000D0012070470AB10161704750
:100500000904FBE7014880687047000004000020F0
:10051000024881680278114481607047040000201D
:10052000074810B5016841F010010160032000F098
:1005300073F8002000F006F800F024F8002010BD49
:100540000020024070B50D4D04464FF47A712878B2
:10055000B1FBF0F00A490968B1FBF0F000F0FCFAD9
:1005600048B9102C07D200222146501E00F034F862
:1005700000206C6070BD012070BD000004000020F0
:10058000100000200C4808B5816941F0010181612B
:10059000816901F001010091C16941F08051C1619F
:1005A000C06900F0805000900448416821F0E0618B
:1005B00041F00071416008BD0010024000000140A0
:1005C00000F01F02012191404009800000F1E0206D
:1005D000C0F8001170470000F0B40E4B1B680C46C9
:1005E000C3F30223C3F10705042D00D90425191D07
:1005F000072901D2002300E0DB1E012606FA05F1DF
:10060000491E214099409E40761E16403143F0BC61
:1006100000F086BC0CED00E0064900F00702086817
:100620004FF6FF03184040EA0220034A10430860D7
:10063000704700000CED00E00000FA052DE9F047DE
:10064000DFF8548105460E46D8F8000000F0070098
:10065000B0420CD2D8F8001021F007013143C8F89D
:100660000010D8F8000000F00700B0426FD12868F1
:100670004A4C810712D5400703D5606840F4E0601A
:1006800060602878000703D5606840F460506060BF
:100690006068A96820F0F000084360602878C0070F
:1006A00044D06868012816D02168022816D089072E
:1006B00000294CDA616821F0030101436160FFF712
:1006C00021FF6968074641F2883001290ED00229CE
:1006D000814618D026E021688903E9E78901E7E728
:1006E000FFF710FFC11B494501D918E0814660683A
:1006F000C0F381000128F3D118E000BFFFF702FF2B
:10070000C11B49450BD86068C0F381000228F5D1B0
:100710000CE000BFFFF7F6FEC11B494502D90320DC
:10072000BDE8F087606810F00C0FF3D1D8F8001026
:10073000404601F00701B1420BD9016821F00701E1
:1007400031430160006800F00700B04201D0012091
:10075000E6E72878400705D56068E96820F4E0609E
:10076000084360602878000706D56068296920F48E
:10077000605040EAC100606000F036F86168084AE5
:10078000C1F30311515CC840064908600020FFF71F
:10079000D9FE0020C4E70000002002400010024003
:1007A00098130008100000200448054900684968B3
:1007B000044AC1F30221515CC84070471000002078
:1007C00000100240A8130008044805490068496861
:1007D000044AC1F3C221515CC84070471000002098
:1007E00000100240A813000812A185B00FC98DE8BF
:1007F0000F0014A0144A006804905168134801F0D7
:100800000C03042B10D0082B0ED1C1F38343C90372
:100810001DF803000AD5516804AAC1F34041515C98
:100820000A4A5043B0FBF1F005B07047084948430D
:10083000FAE7000002030405060708090A0B0C0D7D
:100840000E0F1010010200000010024000127A008A
:1008500000093D002DE9F84F04460078B94DC00766
:1008600048D06868C0F38100012807D06868C0F3E9
:100870008100022809D16868C00306D52868800372
:1008800038D5606800286FD034E06068B0F5803FEC
:100890000BD010B1B0F5A02F11D0286820F4803013
:1008A0002860286820F4802002E0286840F4803026
:1008B0002860606888B1FFF725FE064609E02868D1
:1008C00040F480202860F0E7FFF71CFE801B6428BE
:1008D00075D828688003F7D50CE0FFF713FE0646AD
:1008E00005E000BFFFF70EFE801B6428F0D82868E3
:1008F0008003F7D42078944E80074FF001094FF021
:1009000000083BD5686810F00C0F07D06868C0F38A
:100910008100022809D16868C00306D428688007CE
:1009200014D5206901281FD110E02069B0B1C6F8A4
:100930000090FFF7E7FD074605E000BFFFF7E2FD87
:10094000C01B0228C4D828688007F7D528686169C9
:1009500020F0F80040EAC10028600FE0C6F80080EF
:10096000FFF7D0FD074606E0E9E000BFFFF7CAFD4C
:10097000C01B022823D828688007F7D420780007F6
:100980002CD57248A169D9B1C0F80090FFF7BAFD23
:10099000074604E0FFF7B6FDC01B02280FD8686ABF
:1009A0008007F7D56A484FF4FA510068B0FBF1F0C0
:1009B000009000BF0098411E0091FAD20EE080E046
:1009C000C0F80080FFF79EFD074604E0FFF79AFDA0
:1009D000C01B022875D8686A8007F7D420784007C2
:1009E00060D5E8690027C00008D4E86940F080506D
:1009F000E861E869012700F08050009055480168DF
:100A0000C90513D40168834641F480710160FFF782
:100A100079FD824606E000BFFFF774FDA0EB0A00F7
:100A200064284ED8DBF80000C005F5D5E068012841
:100A30000AD008B1052813D0286A20F001002862E6
:100A4000286A20F0040002E0286A40F001002862D1
:100A5000E06841F2883B98B1FFF754FD82460BE015
:100A6000286A40F004002862EEE700BFFFF74AFD65
:100A7000A0EB0A0159455AD8286A8007F6D50CE040
:100A8000FFF740FD824605E0FFF73CFDA0EB0A01C1
:100A900059454CD8286A8007F6D41FB1E86920F080
:100AA0008050E861E06988B36968C1F38101022977
:100AB00045D00228C6F8608004D0FFF723FD044625
:100AC00038E034E0FFF71EFD074604E0FFF71AFDAB
:100AD000C01B02282BD828688001F7D4206AB0F503
:100AE000803F05D16868A16820F400300843686041
:100AF000D4E908010843696821F474110843686067
:100B0000C6F86090FFF7FEFC044606E015E000BF63
:100B1000FFF7F8FC001B022809D828688001F7D5E8
:100B20000BE000BFFFF7EEFC001B022802D90320F8
:100B3000BDE8F88F28688001F4D40020F8E7012090
:100B4000F6E70000001002400000424280044242EA
:100B5000100000200070004010B5401EB0F1807FF2
:100B600001D3012010BD4FF0E02460610F21601718
:100B700000F0D6F90020A06107202061002010BD00
:100B80007047000070B5026804461068D168536968
:100B900010F00F0F50D003F0010501F490763543AB
:100BA0005DD0C20705D0CA0503D5E26B42F0010251
:100BB000E263420705D5DA0703D0E26B42F0020296
:100BC000E263820705D5DA0703D0E26B42F0040244
:100BD000E263020705D5DA0703D0E26B42F00802B0
:100BE000E263E26B002A33D0800604D5880602D582
:100BF000204600F00BFA20684069E16BC0F38010DA
:100C0000090700D428B3204600F0F2F920684169B2
:100C100049061AD5416921F040014161606BA0B1DC
:100C20001B494163606BFFF7C5FA002810D0606B69
:100C3000416BBDE870400847830610D58B060ED582
:100C40002046BDE8704000F0E1B92046FFF798FF6C
:100C500070BD2046FFF794FF0020E06370BD0306DF
:100C600006D50B0604D52046BDE8704000F0D2BA88
:100C70004006F3D54806F1D5D168204621F0400161
:100C8000D160202184F8391000F00DF970BD00000A
:100C9000E10F000870B5040004D094F83900002575
:100CA00010B106E0012070BD84F83850204600F0F5
:100CB00023F8242084F839002068C16821F4005109
:100CC000C160204600F0EEF92068016921F49041EE
:100CD00001612068416921F02A0141612068C168F1
:100CE00041F40051C160E563202084F8390084F8A4
:100CF0003A00002070BD000030B585B0002400949B
:100D00000194029403940068184988422BD1184832
:100D1000C16941F40031C161C16901F4003104913C
:100D2000816941F0040181618069124D00F0040085
:100D30000490042000900220019003200390694653
:100D40002846FFF7E1FA0820CDE900046946284665
:100D50000294FFF7D9FA002211462620FFF73CFC47
:100D60002620FFF72DFC05B030BD000000440040F8
:100D7000001002400008014090F83A30202B22D1A8
:100D8000F9B1F2B190F83830012B1CD08162828524
:100D9000C2850021C163222280F83A2080F83810F1
:100DA0000168CA6842F48072CA6001684A6942F008
:100DB00001024A610068C16841F02001C160002061
:100DC0007047012070470220704700000549006805
:100DD0000968884204D1012203490248FFF7CCBFC9
:100DE0007047000014000020000000202DE9F843A7
:100DF000044690F839001F4616460D46202850D16B
:100E0000A5B19EB194F8380001284AD0012084F899
:100E100038004FF00008C4F83C80212084F83900E5
:100E2000FFF770FBA6848146E68426E00120BDE83A
:100E3000F883E08C401EE084A0684B46B0F5805FEC
:100E40004FF000024FF080012046009703D000F0E1
:100E500012FAE8B90DE000F00EFAC8B92888216846
:100E6000C0F308004860206908B16D1C05E0AD1CA6
:100E700003E0216815F8010B4860E08C0028D8D108
:100E80004B46002240212046009700F0F4F908B1BB
:100E90000320CCE7202084F8390084F83880002033
:100EA000C5E70220C3E77047FEE7000070B586B0D3
:100EB000002418480094019402940394816941F03D
:100EC00010018161816901F010010491816941F093
:100ED00004018161816901F004010491816941F09B
:100EE0000801816180690C4E00F008004FF44065F4
:100EF0000490002229463046FFF7FFFA01200095B2
:100F0000CDE901040320039069463046FFF7FCF960
:100F100006B070BD00100240000C0140FEE77047B3
:100F20000907090E002806DA00F00F0000F1E020A2
:100F300080F8141D704700F1E02080F8001470471D
:100F400070477047FFF7E4BA30B58FB02821684684
:100F5000FFF711F914210AA8FFF70DF90121080480
:100F6000CDE900100024029402250491CDE9075038
:100F70004FF4E01009906846FFF76CFC0F20CDE9B4
:100F80000A056802CDE90C4002210AA80E94FFF779
:100F900055FB0FB030BD00000D48016841F0010164
:100FA000016041680B4A1140416001680A4A1140E2
:100FB0000160016821F480210160416821F4FE0193
:100FC00041604FF41F0181600449C003086070470D
:100FD000001002400000FFF8FFFFF6FE08ED00E001
:100FE00010B5406A0021C185C184FFF7C9FD10BD5D
:100FF0000168CA6822F49072CA6001684A6922F0E6
:1010000001024A61202180F83A10704710B590F82B
:101010003A10222901D0022010BD8168B1F5805F0D
:1010200011D00169002901681FD0496801F07F03D0
:10103000816A4A1C82620B70C18D491E0904090C29
:10104000C18518D02BE00269816A002A02685268C3
:1010500005D0D2B20A80816A491C8162ECE7C2F3F2
:1010600008020A80816A891CF7E74A68816A4B1C7A
:1010700083620A70E0E70168CA6822F02002CA6051
:101080000168CA6822F48072CA6001684A6922F065
:1010900001024A61202180F83A10FFF797FE0020F4
:1010A00010BD00002DE9F041044600680169E268C6
:1010B00021F44051114301612169A068084361692D
:1010C00008432168CA6841F20C639A430243CA602C
:1010D00020684169A26921F44071114341614C4982
:1010E00020686425322688423CD1FFF76DFB00EB77
:1010F000C00101EB001061688900B0FBF1F7FFF758
:1011000063FB00EBC00101EB00106168B046890091
:10111000B0FBF1F0B0FBF5F06FF01801484307EBBE
:10112000800106EB0110B0FBF5F000F0F006FFF7D0
:101130004BFB00EBC00101EB001061688900B0FBC4
:10114000F1F0B0FBF5F006EB0016FFF73DFB00EB0E
:10115000C00101EB001061688900B0FBF1F7FFF7F7
:1011600033FB3BE0FFF720FB00EBC00101EB00107D
:1011700061688900B0FBF1F7FFF716FB00EBC001D7
:1011800001EB00106168B0468900B0FBF1F0B0FBE4
:10119000F5F06FF01801484307EB800106EB0110F2
:1011A000B0FBF5F000F0F006FFF7FEFA00EBC0012F
:1011B00001EB001061688900B0FBF1F0B0FBF5F0C5
:1011C00006EB0016FFF7F0FA00EBC00101EB001090
:1011D00061688900B0FBF1F7FFF7E6FA00EBC001A8
:1011E00001EB001061688900B0FBF1F0B0FBF5F095
:1011F0006FF01801484307EB800108EB0110B0FBCA
:10120000F5F0216800F00F0030448860BDE8F081FF
:101210000038014090F83910212901D00220704790
:101220008168B1F5805F016A0BD04A1C02620268D6
:1012300009785160C18C491E0904090CC1840ED083
:1012400017E009880268C1F30801516001690029AB
:10125000016A02D0491C0162ECE7891CFBE70168C6
:10126000CA6822F08002CA600068C16841F040018B
:10127000C160002070472DE9F041984617460E46A0
:101280000446069D1DE0681C1BD02DB1FFF73AF9FE
:10129000A0EB0800A84214D92068C16821F4D071DD
:1012A000C1602068416921F001014161202084F87A
:1012B000390084F83A00002084F838000320BDE8A3
:1012C000F0812068006836EA000004D00020B842AF
:1012D000D9D00020F3E70120F9E700000148FFF72B
:1012E00051BC000014000020FEE702E008C8121FF5
:1012F00008C1002AFAD170477047002001E001C1FF
:10130000121F002AFBD17047FFF70AF9FFF71CFEF6
:10131000FFF7CCFD1D481C490C2201604FF416411B
:10132000416000218160C160C0E904128161C16136
:10133000FFF7B0FC012216491448FFF71DFD144CBD
:10134000DFF850803125641C4FF480674FF47A79C0
:10135000302639464046FFF7CBF80128F9D10C4931
:10136000257064230122491C0848FFF73FFD4846C9
:10137000FEF7B8FF0649267064230122491C034882
:10138000FFF734FDE5E700000044004014000020B2
:1013900000000020000C01400000000000000000E0
:1013A000010203040607080900000000010203040B
:1013B000D01300080000002014000000EA1200080A
:1013C000E41300081400002044040000FA1200088E
:1013D00000000000010000001000000000000000FC
:0413E00000A24A0419
:0400000508000131BD
:00000001FF
