:020000040800F2
:10000000E8040020450100087F1800087B13000861
:100010007D180008DD010008811E000800000000B6
:10002000000000000000000000000000A31800080D
:10003000DF01000800000000A1180008A518000852
:100040005F0100085F0100085F0100085F01000810
:100050005F0100085F0100085F0100085F01000800
:100060005F0100085F0100085F0100085F010008F0
:100070005F0100085F0100085F0100085F010008E0
:100080005F0100085F0100085F0100085F010008D0
:100090005F0100085F0100085F0100085F010008C0
:1000A0005F0100085F0100085F0100085F010008B0
:1000B0005F0100085F0100085F0100085F010008A0
:1000C0005F0100085F0100085F0100085F01000890
:1000D0005F0100085F010008751E00085F0100084D
:1000E0005F0100085F0100085F0100085F01000870
:1000F0005F0100085F0100085F0100085F01000860
:100100005F0100085F0100085F0100085F0100084F
:100110005F0100085F0100085F0100085F0100083F
:100120005F0100085F0100085F0100085F0100082F
:10013000DFF80CD000F040F8004800472D20000800
:10014000E80400200648804706480047FEE7FEE72F
:10015000FEE7FEE7FEE7FEE7FEE7FEE7FEE7FEE777
:100160000519000831010008D2B201E000F8012BA6
:10017000491EFBD270470022F6E710B513460A4627
:1001800004461946FFF7F0FF204610BD30B50B4678
:10019000014600202022012409E021FA02F59D42B7
:1001A00005D303FA02F5491B04FA02F52844151E8B
:1001B000A2F10102F1DC30BD064C074D06E0E0681B
:1001C00040F0010394E8070098471034AC42F6D39E
:1001D000FFF7B2FF4C2800086C280008FEE77047C4
:1001E00001B5009801E0401E00900028FBD108BD39
:1001F00030B5B3F5804F05D06FF0704140F8221054
:10020000002030BD8C690B688D6823434C68898958
:10021000240144EA0524234343EA014150F82230F3
:10022000014C23401943E9E70000F0CF30B50A68DC
:1002300050F8223023F0010340F822308C68204B24
:100240004A68082C1ED02243D1E903452C4322439F
:100250004C6922438C692243CC6922430C6A2243B5
:100260004C6A22438C6A2243CC6A22430C6B096895
:10027000224350F821401C4052EA040240F8212059
:10028000002030BDD1E9034542F008022C4322434F
:100290004C6922438C692243CC6922430C6A224375
:1002A0004C6A22438C6A2243CC6A22430C6B096855
:1002B000224350F821401C40224342F04002DDE737
:1002C0008100F7FF30B5D1E9003443EA04138C68AC
:1002D0008D89240244EA054423430C8A094D00EB2E
:1002E000820005EB045423430C7D6D0105EB04648F
:1002F000896923430B43416801F040410B4343604C
:10030000002030BD0000F0FF2DE9F05F90F82110D3
:100310000024022903D004218163012485E00168BF
:100320000A6822F00E020A6001680A6822F00102DF
:100330000A603F4E3E4FB215DFF8F4C0DFF8F09090
:10034000DFF8ECA0DFF8E8B0DFF8E4E00168783F20
:1003500013011502ACF1640CA9F15009AAF13C0A91
:10036000ABF1280BAEF1140E4FF48018B14227D92F
:10037000B9420ED0614512D049451DD0514518D023
:10038000594518D0714501D1424615E0294EB14278
:1003900001D1012210E0274E1436B14201D11022C2
:1003A0000AE0244E2836B14206D0224A3C3291421D
:1003B00001D11A4600E02A461E49091F0A602BE0B7
:1003C000B94213D0614517D0494522D051451DD0BF
:1003D00059451DD0714501D142461AE0B14202D1C2
:1003E0004FF0807215E0134EB14201D1012210E0AE
:1003F000104E1436B14201D110220AE00D4E2836BB
:10040000B14206D00B4A3C32914201D11A4600E07B
:100410002A46074980394A60012180F821100021CD
:1004200080F82010416B01B188472046BDE8F09F5D
:10043000800002400804024070B5044600F040F914
:100440000546601C02D004480078044400F038F9E6
:10045000401BA042FAD370BD1000002030B585B01B
:10046000002000900190029003901248016800293A
:100470001ED1012101601048416941F48071416140
:100480004069022400F4807004904FF68070CDE93A
:100490000004032569460395084800F013F84CF65C
:1004A000B370CDE9000469460395054800F00AF8E9
:1004B00005B030BD080000200010024000180140C7
:1004C000001401402DE9F84FDFF8B8A100220AF12D
:1004D000040B144601274FF00F090BF1040E00BF67
:1004E0000B6807FA04F52B40AB4274D1DFF898C1D2
:1004F0004E68A6EB0C0866452BD00DDC032E34D0DD
:1005000005DC36B3012E19D0022E2FD11BE0112E9F
:1005100016D0122E2AD119E0B8F5881F19D006DCA2
:10052000B8F5803F15D0B8F5801F1FD111E0B8F5A0
:10053000001F0ED0B8F5041F18D10AE0CA6815E0F4
:10054000CA68121D12E0CA6808320FE0CA680C328D
:100550000CE08A682AB1012A4FF0080203D04561F5
:1005600004E0042202E0056100E00022FF2B01D834
:10057000064601E000F104064FEA840501D9A5F121
:100580002005D6F800C009FA05F82CEA080C02FA92
:1005900005F54CEA050CC6F800C04D68ED006AD5BB
:1005A0003A4DAE6946F00106AE61AD6924F003062E
:1005B00005F001050095364D06EB050CDCF80850FA
:1005C000A6074FEA167809FA08F6B543314EB0424D
:1005D00002D100261AE04EE02F4EB04201D1012692
:1005E00014E02E4EB04201D102260FE02C4EB04254
:1005F00001D103260AE02B4EB04201D1042605E0CA
:10060000294EB04201D1052600E0062606FA08F67A
:100610002E43CCF808604D68DAF80060ED035546CB
:1006200001D51E4300E09E432E604D68AD0305D505
:10063000DBF800601E43CBF8006004E0DBF80050FC
:100640009D43CBF800504D68DEF80060ED02754622
:1006500001D51E4300E09E432E604D68AD0205D5D6
:10066000084D0C352E681E432E6004E0054E0C36F6
:1006700035689D433560641C102CFFF431AFBDE834
:10068000F88F00000004014000001110001002402B
:100690000000014000080140000C01400010014032
:1006A0000014014000180140001C0140806808400F
:1006B00000D0012070470AB1016170470904FBE7CF
:1006C00001488068704700001000002002488168DF
:1006D000027811448160704710000020074810B56F
:1006E000016841F010010160032000F073F8002060
:1006F00000F006F800F024F8002010BD00200240B1
:1007000070B50D4D04464FF47A712878B1FBF0F0C6
:100710000A490968B1FBF0F000F04DFB48B9102C14
:1007200007D200222146501E00F034F800206C60F1
:1007300070BD012070BD0000100000201C000020D2
:100740000C4808B5816941F001018161816901F0BE
:1007500001010091C16941F08051C161C06900F09F
:10076000805000900448416821F0E06141F0007140
:10077000416008BD001002400000014000F01F026F
:10078000012191404009800000F1E020C0F80011F3
:1007900070470000F0B40E4B1B680C46C3F30223F5
:1007A000C3F10705042D00D90425191D072901D21D
:1007B000002300E0DB1E012606FA05F1491E214058
:1007C00099409E40761E16403143F0BC01F058B867
:1007D0000CED00E0064900F0070208684FF6FF0341
:1007E000184040EA0220034A1043086070470000A6
:1007F0000CED00E00000FA052DE9F047DFF8548128
:1008000005460E46D8F8000000F00700B0420CD2B2
:10081000D8F8001021F007013143C8F80010D8F8CB
:10082000000000F00700B0426FD128684A4C8107F1
:1008300012D5400703D5606840F4E0606060287816
:10084000000703D5606840F4605060606068A96884
:1008500020F0F000084360602878C00744D0686842
:10086000012816D02168022816D0890700294CDA01
:10087000616821F0030101436160FFF721FF6968AE
:10088000074641F2883001290ED00229814618D04E
:1008900026E021688903E9E78901E7E7FFF710FF10
:1008A000C11B494501D918E081466068C0F3810049
:1008B0000128F3D118E000BFFFF702FFC11B494533
:1008C0000BD86068C0F381000228F5D10CE000BFAE
:1008D000FFF7F6FEC11B494502D90320BDE8F087AA
:1008E000606810F00C0FF3D1D8F80010404601F00A
:1008F0000701B1420BD9016821F0070131430160C2
:10090000006800F00700B04201D00120E6E7287837
:10091000400705D56068E96820F4E060084360603E
:100920002878000706D56068296920F4605040EAFD
:10093000C100606000F036F86168084AC1F3031135
:10094000515CC840064908600020FFF7D9FE00202E
:10095000C4E70000002002400010024034280008D4
:100960001C0000200448054900684968044AC1F396
:100970000221515CC84070471C000020001002405A
:10098000442800080448054900684968044AC1F33E
:10099000C221515CC84070471C000020001002407A
:1009A0004428000812A185B00FC98DE80F0014A0DB
:1009B000144A006804905168134801F00C03042B9A
:1009C00010D0082B0ED1C1F38343C9031DF80300D7
:1009D0000AD5516804AAC1F34041515C0A4A504308
:1009E000B0FBF1F005B0704708494843FAE7000052
:1009F00002030405060708090A0B0C0D0E0F101060
:100A0000010200000010024000127A0000093D00BF
:100A100030B585B0002002900220019003200390A1
:100A20000B4C4FF480700090A0690D4640F004001C
:100A3000A061A069694600F0040004900548FFF732
:100A400041FD606820F0E0602843606005B030BD83
:100A500000100240000801402DE9F84F04460078DC
:100A6000B94DC00748D06868C0F38100012807D09D
:100A70006868C0F38100022809D16868C00306D500
:100A80002868800338D5606800286FD034E060683B
:100A9000B0F5803F0BD010B1B0F5A02F11D0286871
:100AA00020F480302860286820F4802002E0286844
:100AB00040F480302860606888B1FFF701FE064688
:100AC00009E0286840F480202860F0E7FFF7F8FD8F
:100AD000801B642875D828688003F7D50CE0FFF7E1
:100AE000EFFD064605E000BFFFF7EAFD801B642826
:100AF000F0D828688003F7D42078944E80074FF010
:100B000001094FF000083BD5686810F00C0F07D0C2
:100B10006868C0F38100022809D16868C00306D460
:100B20002868800714D5206901281FD110E02069AA
:100B3000B0B1C6F80090FFF7C3FD074605E000BF5F
:100B4000FFF7BEFDC01B0228C4D828688007F7D570
:100B50002868616920F0F80040EAC10028600FE0D1
:100B6000C6F80080FFF7ACFD074606E0E9E000BFED
:100B7000FFF7A6FDC01B022823D828688007F7D4FA
:100B8000207800072CD57248A169D9B1C0F800902F
:100B9000FFF796FD074604E0FFF792FDC01B022811
:100BA0000FD8686A8007F7D56A484FF4FA51006891
:100BB000B0FBF1F0009000BF0098411E0091FAD206
:100BC0000EE080E0C0F80080FFF77AFD074604E001
:100BD000FFF776FDC01B022875D8686A8007F7D436
:100BE0002078400760D5E8690027C00008D4E8698C
:100BF00040F08050E861E869012700F080500090E3
:100C000055480168C90513D40168834641F48071D1
:100C10000160FFF755FD824606E000BFFFF750FD7B
:100C2000A0EB0A0064284ED8DBF80000C005F5D51B
:100C3000E06801280AD008B1052813D0286A20F0FE
:100C400001002862286A20F0040002E0286A40F0CF
:100C500001002862E06841F2883B98B1FFF730FD5F
:100C600082460BE0286A40F004002862EEE700BFED
:100C7000FFF726FDA0EB0A0159455AD8286A8007DC
:100C8000F6D50CE0FFF71CFD824605E0FFF718FDE6
:100C9000A0EB0A0159454CD8286A8007F6D41FB149
:100CA000E86920F08050E861E06988B36968C1F3C1
:100CB0008101022945D00228C6F8608004D0FFF7E0
:100CC000FFFC044638E034E0FFF7FAFC074604E096
:100CD000FFF7F6FCC01B02282BD828688001F7D448
:100CE000206AB0F5803F05D16868A16820F4003023
:100CF00008436860D4E908010843696821F4741165
:100D000008436860C6F86090FFF7DAFC044606E026
:100D100015E000BFFFF7D4FC001B022809D82868A3
:100D20008001F7D50BE000BFFFF7CAFC001B0228CB
:100D300002D90320BDE8F88F28688001F4D4002090
:100D4000F8E70120F6E700000010024000004242F0
:100D5000800442421C0000200070004070B515461F
:100D60000E46040003D094F83D0010B107E00120C6
:100D700070BD002084F83C00204600F01AF804F111
:100D800008012068FFF752FA3146A2682068FFF791
:100D900099FAD4E901022946236BFFF729FAA168E1
:100DA000206850F8212042F0010240F82120002064
:100DB00070BDFFF753BB10B5401EB0F1807F01D36B
:100DC000012010BD4FF0E02460610F21601700F09A
:100DD00057FD0020A06107202061002010BD30B524
:100DE00090F83C20012A20D0012280F83C200223E8
:100DF00080F83D3003685C6824F070045C60036830
:100E00005C680D682C435C6003689C6824F0800477
:100E10009C6003689C6849680C439C6080F83D2096
:100E2000002180F83C10084630BD022030BD10B5CE
:100E3000040003D094F83D0010B107E0012010BD7C
:100E4000002084F83C00204600F00CF8022084F8D2
:100E50003D00211D206800F079FD012084F83D004F
:100E6000002010BD08B500680649884208D1064830
:100E7000C16941F00401C161C06900F00400009043
:100E800008BD0000000800400010024070B5044694
:100E900090F83C00012817D0012584F83C5002202E
:100EA00084F83D002068826822F0770222F47F42B5
:100EB00082600868502837D00DDC202859D005DC26
:100EC00088B3102841D151E0022070BD302853D0A2
:100ED00040283AD13FE060282ED070280BD0B0F5E2
:100EE000805F03D0B0F5005F2FD110E020688168EB
:100EF00021F0070115E0CB68D1E90121206800F05D
:100F000076FD2168886840F0770088601DE0CB6836
:100F1000D1E90121206800F06AFD2068816841F470
:100F20008041816011E01EE0CA684968206800F0D5
:100F300033FE5021206806E0CA684968206800F046
:100F40003CFE6021206800F05CFD84F83D500020EC
:100F500084F83C0070BDCA684968206800F01CFE37
:100F600040212068EFE700212068ECE7102120688D
:100F7000E9E720212068E6E730212068E3E7000068
:100F800000B585B0002100910191029103910068A4
:100F90000B49884211D10B48816941F008018161F8
:100FA0008069694600F0080004904020009002200B
:100FB000019003900448FFF785FA05B000BD0000DA
:100FC0000008004000100240000C014070B50446CB
:100FD00090F83C000D4601280DD0012684F83C60B5
:100FE000022084F83D0042B1042A18D0082A2AD0F1
:100FF0000C2A4DD139E0022070BD206800F00AFDB6
:101000002068816941F0080181612068816921F0CF
:1010100004018161206881692A69114311E0206817
:1010200000F028FD2068816941F400618161206839
:10103000816921F480618161206881692A6941EABE
:101040000221816124E0206800F04AFD2068C16926
:1010500041F00801C1612068C16921F00401C1614A
:101060002068C1692A69114311E0206800F06CFD15
:101070002068C16941F40061C1612068C16921F43F
:101080008061C1612068C1692A6941EA0221C161A8
:1010900084F83D60002084F83C0070BD10B5040069
:1010A00003D094F83D0010B107E0012010BD0020EE
:1010B00084F83C00204600F00CF8022084F83D0043
:1010C000211D206800F042FC012084F83D00002032
:1010D00010BD704710B504460068012200F07CFC8A
:1010E00008492068884202D00749884203D1416CF0
:1010F00041F4004141642068016841F00101016050
:10110000002010BD002C0140003401407047000059
:1011100070B5026804461068D168536910F00F0F6B
:1011200050D003F0010501F4907635435DD0C2073D
:1011300005D0CA0503D5E26B42F00102E263420723
:1011400005D5DA0703D0E26B42F00202E2638207C0
:1011500005D5DA0703D0E26B42F00402E26302072E
:1011600005D5DA0703D0E26B42F00802E263E26BD6
:10117000002A33D0800604D5880602D5204600F028
:1011800044FD20684069E16BC0F38010090700D47A
:1011900028B3204600F02BFD2068416949061AD586
:1011A000416921F040014161606BA0B11B4941637D
:1011B000606BFFF7A9F8002810D0606B416BBDE8A9
:1011C00070400847830610D58B060ED52046BDE833
:1011D000704000F01ABD2046FFF798FF70BD204612
:1011E000FFF794FF0020E06370BD030606D50B06F1
:1011F00004D52046BDE8704000F00ABE4006F3D595
:101200004806F1D5D168204621F04001D160202167
:1012100084F8391000F0B0F870BD0000DF1B000842
:1012200070B5040004D094F83900002510B106E030
:10123000012070BD84F83850204600F023F82420A7
:1012400084F839002068C16821F40051C16020464B
:1012500000F026FD2068016921F4904101612068B9
:10126000416921F02A0141612068C16841F40051BF
:10127000C160E563202084F8390084F83A0000203A
:1012800070BD000030B585B0002400940194029434
:1012900003940068184988422BD11848C16941F469
:1012A0000031C161C16901F400310491816941F0EB
:1012B000040181618069124D00F004000490042053
:1012C0000090022001900320039069462846FFF712
:1012D000F9F80820CDE90004694628460294FFF792
:1012E000F1F8002211462620FFF754FA2620FFF7D6
:1012F00045FA05B030BD0000004400400010024037
:101300000008014090F83A30202B22D1F9B1F2B117
:1013100090F83830012B1CD081628285C285002173
:10132000C163222280F83A2080F838100168CA6828
:1013300042F48072CA6001684A6942F001024A615F
:101340000068C16841F02001C160002070470120A1
:10135000704702207047000005490068096888420C
:1013600004D1012203490248FFF7CCBF70470000B7
:1013700060000020000000207047FEE7044B4FF49F
:10138000805108B1002200E001221846FFF793B90E
:101390000014014070B51D461446049E00F072F81A
:1013A00004FB05F03146BDE8704000F049B800008C
:1013B00070B5203AD4B21023082200F063F82C2034
:1013C000C10608800C490D4B01EB041500204FF6B7
:1013D000FF742A5C0021D60702D01F261E8000E081
:1013E0001C80491C5208C9B20829F4D3401CC0B261
:1013F0001028EED370BD00004422000800000260F7
:10140000F0B516460D4604464FF4A07714E000BF31
:1014100004F10800F02802D900241035ADB205F11E
:101420001000B84201D90024254629462046FFF77E
:10143000BFFF0834A4B2761C3278002AE8D1F0BD90
:1014400010B500222C23DC062380034B01E0198019
:10145000521C8242FBD310BD0000026008B501207F
:10146000FFF78CFF00F0EAF800F02CF84FF6FF7061
:10147000002100904FF4A073F0220846FFF78AFF86
:1014800008BD000070B54FF0C0452A242C800C4CDC
:10149000060A2680C6B226801044401E020A228018
:1014A000C0B220802B202880080A2080C8B220806B
:1014B000C818401E010A2180C0B2208070BD000003
:1014C0000000026000B54FF0C041CF2008805948AD
:1014D000002202808122028030220280ED220A80D6
:1014E0006422028003220280122202808122028072
:1014F000E8220A808522028010220280782202805F
:10150000CB220A80392202802C2202800022028013
:101510003422028002220280F7220A8020220280E6
:10152000EA220A80002202800280B1220A80002280
:1015300002801B220280B6220A800A220280A22296
:101540000280C0220A8035220280C1220A80112234
:101550000280C5220A80452202800280C7220A80BA
:10156000A2220280F2220A800022028026220A8021
:1015700001220280E0220A800F22028026220280BD
:10158000242202800B2202800E2202800922028085
:1015900054220280A8220280462202800C2202806D
:1015A00017220280092202800F2202800722028075
:1015B00000220280E1220A80002202801922028099
:1015C0001B22028004220280102202800722028055
:1015D0002A220280472202803922028003220280CE
:1015E00006220280028030220280382202800F22EE
:1015F000028036220A80C82202802A220A80002223
:10160000028002800280EF2202802B220A800022C8
:1016100002800280012202803F2202803A220A8058
:1016200055220280112008800348FEF7D9FD2920A9
:10163000088000BD00000260FCBF020070B50A4CCB
:10164000002202212046FFF736F8084D2846FEF713
:10165000C7FD012202212046FFF72DF82846BDE8EC
:101660007040FEF7BDBD000000180140FCBF020045
:1016700000B587B01C216846FEF77DFD15484FF088
:101680002041102201601449416000218160C16045
:10169000C0E904128161C16113020162C0E909134A
:1016A000C1620163416381630F20FF230090CDE994
:1016B0000103CDE903021120CDE9050100226946AD
:1016C0000448FFF74BFB0548C16941F48061C161E3
:1016D00007B000BDA0000020040100A000000140F0
:1016E0002DE9F04F85B000243D4800940194029408
:1016F0000394816941F010018161816901F0100159
:101700000491816941F004018161816901F0040162
:101710000491816941F040018161816901F04001DA
:101720000491816941F008018161816901F008013A
:101730000491816941F0200181618069DFF8A48012
:1017400000F020004FF470450490002229464046E6
:10175000FEF7B1FFDFF890904FF48056002231463B
:101760004846FEF7A8FFDFF884A0002280215046FB
:10177000FEF7A1FFDFF878B0002202215846FEF7FD
:101780009AFF0095032701250397CDE90154694687
:101790004046FEF797FE03970096CDE9015469464F
:1017A0004846FEF78FFE80200226CDE90005CDE9F0
:1017B000024669465046FEF785FE2802CDE900063E
:1017C00069460C480396FEF77DFE03970096CDE927
:1017D000015469465846FEF775FE05B0BDE8F08F26
:1017E00000100240000C01400014014000100140B4
:1017F000001801400008014010B58EB00024079485
:10180000089409940A940B941C2168460C94FEF7E2
:10181000B2FC19481749016040F2CF21C0E9011418
:1018200040F2CF71C0E903148461FFF700FB4FF46D
:101830008050079007A91048FFF728FB0E48FFF7D4
:101840002DFC0B940BA90C480C94FFF7C8FA6020F0
:10185000CDE9000402940022694607480494FFF78A
:10186000B5FB00210448FFF735FC0348FFF788FB70
:101870000EB010BD0008004020000020FEE77047B9
:101880000907090E002806DA00F00F0000F1E02039
:1018900080F8141D704700F1E02080F800147047B4
:1018A00070477047FEF712BF30B58FB028216846E9
:1018B000FEF761FC14210AA8FEF75DFC0121080473
:1018C000CDE900100024029402250491CDE90750CF
:1018D0004FF4E01009906846FFF7BEF80F20CDE9FD
:1018E0000A056802CDE90C4002210AA80E94FEF711
:1018F00083FF00224FF0E0611046FFF789F80FB038
:1019000030BD00000D48016841F0010101604168EF
:101910000B4A1140416001680A4A114001600168A8
:1019200021F480210160416821F4FE0141604FF4FF
:101930001F0181600449C003086070470010024025
:101940000000FFF8FFFFF6FE08ED00E0F0B50268CA
:101950001C4B1D4D1D4E1E4F1E4C4FF0804C98428F
:1019600009D0A04207D0604505D0A84203D0B042BC
:1019700001D0B84204D122F0700E4A6842EA0E0249
:10198000984209D0A04207D0604505D0A84203D0B4
:10199000B04201D0B84203D122F44075CA682A434C
:1019A00022F080054A692A4302608A68C2620A6896
:1019B0008262984201D0A04201D1096901630121EC
:1019C0004161F0BD002C01400004004000080040CF
:1019D000000C00400034014010B50123046A8B4024
:1019E0009C430462036A8A401343036210BD10B52E
:1019F000846842EA032224F47F440A43224382603B
:101A000010BD826822F070020A4342F00701816033
:101A100070470000F0B5026A22F001020262036A18
:101A200042688469124E24F073050C682C4323F03D
:101A300002058B682B430D4DA84201D0B04205D161
:101A400023F00807CB683B4323F00403A84201D0EE
:101A5000B04205D14D6922F4407215438A692A4388
:101A600042608461496841630362F0BD002C01401B
:101A700000340140F0B5026A22F010020262026AEC
:101A8000436884690D6824F4E64444EA05248D68BB
:101A900022F0200242EA05120F4D104EA84201D05A
:101AA000B04206D1CF6822F0800242EA071222F04B
:101AB0004002A84201D0B04207D14D6923F44063EF
:101AC00043EA85038D6943EA85034360846149687D
:101AD00081630262F0BD0000002C0140003401402F
:101AE000F0B5026A22F480720262026A4368C46935
:101AF00022F4007224F073050C68124E2C438D689A
:101B000042EA05220E4DA84201D0B04206D1CF686C
:101B100022F4006242EA072222F48062A84201D045
:101B2000B04207D14D6923F4405343EA05138D6950
:101B300043EA05134360C4614968C1630262F0BDB2
:101B4000002C01400034014030B5026A22F480527A
:101B50000262046A4268C3690D6823F4E64343EAFB
:101B600005238D6824F4005444EA0534084DA84246
:101B700002D0084DA84204D14D6922F4804242EAC5
:101B800085124260C36149680164046230BD00008F
:101B9000002C01400034014010B5036A046A24F0AF
:101BA00001040462846924F0F00444EA021423F07E
:101BB0000A020A438461026210BD10B5036A23F071
:101BC000100303628369046A23F4704343EA023218
:101BD00024F0A00343EA01118261016210BD10B537
:101BE000406A0021C185C184FFF790FA10BD0168E9
:101BF000CA6822F49072CA6001684A6922F0010240
:101C00004A61202180F83A10704710B590F83A10D8
:101C1000222901D0022010BD8168B1F5805F11D06A
:101C20000169002901681FD0496801F07F03816ABA
:101C30004A1C82620B70C18D491E0904090CC185C2
:101C400018D02BE00269816A002A0268526805D028
:101C5000D2B20A80816A491C8162ECE7C2F30802B1
:101C60000A80816A891CF7E74A68816A4B1C836293
:101C70000A70E0E70168CA6822F02002CA600168C1
:101C8000CA6822F48072CA6001684A6922F00102BF
:101C90004A61202180F83A10FFF75EFB002010BD5A
:101CA0002DE9F041044600680169E26821F44051E1
:101CB000114301612169A0680843616908432168F3
:101CC000CA6841F20C639A430243CA6020684169C2
:101CD000A26921F44071114341614C492068642597
:101CE000322688423CD1FEF74DFE00EBC00101EBED
:101CF000001061688900B0FBF1F7FEF743FE00EBCE
:101D0000C00101EB00106168B0468900B0FBF1F042
:101D1000B0FBF5F06FF01801484307EB800106EBCC
:101D20000110B0FBF5F000F0F006FEF72BFE00EB23
:101D3000C00101EB001061688900B0FBF1F0B0FB5D
:101D4000F5F006EB0016FEF71DFE00EBC00101EBFF
:101D5000001061688900B0FBF1F7FEF713FE3BE06D
:101D6000FEF700FE00EBC00101EB00106168890086
:101D7000B0FBF1F7FEF7F6FD00EBC00101EB001040
:101D80006168B0468900B0FBF1F0B0FBF5F06FF090
:101D90001801484307EB800106EB0110B0FBF5F09A
:101DA00000F0F006FEF7DEFD00EBC00101EB0010D5
:101DB00061688900B0FBF1F0B0FBF5F006EB0016AE
:101DC000FEF7D0FD00EBC00101EB00106168890057
:101DD000B0FBF1F7FEF7C6FD00EBC00101EB001010
:101DE00061688900B0FBF1F0B0FBF5F06FF018010D
:101DF000484307EB800108EB0110B0FBF5F02168C8
:101E000000F00F0030448860BDE8F08100380140E8
:101E100090F83910212901D0022070478168B1F56E
:101E2000805F016A0BD04A1C026202680978516027
:101E3000C18C491E0904090CC1840ED017E0098821
:101E40000268C1F30801516001690029016A02D0EA
:101E5000491C0162ECE7891CFBE70168CA6822F0B3
:101E60008002CA600068C16841F04001C160002082
:101E7000704700000148FFF74BB9000060000020E8
:101E8000FEE700000FB4084B10B504A902AA03989E
:101E900000F01CF8044602A9002000F0C1F820461A
:101EA00010BC5DF814FB00002120000802E008C807
:101EB000121F08C1002AFAD170477047002001E0C4
:101EC00001C1121F002AFBD1704700002DE9FF4F0E
:101ED00089B09B460446002506E025280BD05A46CB
:101EE0000B999047641C6D1C20780028F5D10DB02B
:101EF0002846BDE8F08F0027B8460122474900E098
:101F0000074314F8013F203B02FA03F00842F7D1DF
:101F100020782E2819D114F8010F47F004072A2839
:101F20000ED06FF02F022078A0F1300109290CD8D3
:101F300008EB880102EB410100EB0108641CF2E7A9
:101F40000A98641C50F8048B0A9020780028CED0A0
:101F5000642808D0692806D075281ED05A460B99E7
:101F600090476D1C58E00A994FF00A0901C90A917F
:101F7000002802DA40422D2102E0390504D52B2148
:101F80008DF82010012103E0F90704D02021F7E7A4
:101F90008A4608AE0DE00021FAE70A994FF00A09D7
:101FA00001C90A91F7E74946FEF7F0F8303106F823
:101FB000011D0028F7D1ADEB060000F120097807DC
:101FC00001D44FF00108C84502DDA8EB090000E08C
:101FD00000208046002706E008A85A46C05D0B99FD
:101FE00090476D1C7F1C5745F6DB04E030205A46B5
:101FF0000B9990476D1CB8F10001A8F10108F5DCC0
:1020000005E016F8010B5A460B9990476D1CB9F183
:102010000001A9F10109F4DC641C65E7092801004D
:102020000A68531C0B6010707047000008B5FEF77B
:1020300055FBFFF739FCFFF753FBFFF719FB3A4855
:1020400038490C2201604FF4164141600021816043
:10205000C160C0E904128161C161FFF7E1F8FFF7D7
:10206000CBFBFFF7FBF9314C00224FF480512046A7
:10207000FEF721FB00224FF480412046FEF71BFBB8
:1020800029492320403909684863661400223146F3
:102090002046FEF710FB0022B1002046FEF70BFBA6
:1020A000012223492048FFF72DF9214C214FDFF869
:1020B00088804FF0FF39254601221D491A48FFF755
:1020C00021F9207831280FD031463846FEF7EEFA54
:1020D000012809D02078322808D001214046FEF797
:1020E000E5FA012802D008E0012003E06868012831
:1020F00003DD484600F030F8DEE710A168466A6864
:10210000FFF7C0FE0EA264213C20FFF779F910A270
:10211000B4215A20FFF774F96A46B4217D20FFF7F5
:102120006FF9C9E70044004060000020000C014046
:10213000000000200010014000080140256400005C
:1021400053544D33322069732072656164792100E4
:1021500050616765000000002DE9F84F04464FF616
:10216000FF7700214FF4A073F02208460097FFF795
:1021700011F92EA2A0214620FFF742F90122DFF833
:10218000B480550329464046FEF795FA2A48AB46E7
:102190002A4E41684FF4FA7A2144002441606810C5
:1021A00045464FF0F00980461CE0012C02D0042C7B
:1021B00018D10DE00122D1032846FEF77CFA012256
:1021C00041462846FEF777FA3168C1F8349009E0B5
:1021D000002241462846FEF76EFA0022594628465C
:1021E000FEF769FA04EB8400823080B214A2A021C9
:1021F000FFF706F95046FEF71FF9641C052CD4DBE7
:1022000000214FF4A073F02208460097FFF7C2F8B0
:1022100000224FF400412846FEF74DFA3168232092
:1022200048635046BDE8F84FFEF706B95475726E24
:10223000696E6700000C01400000002020000020B3
:102240002E00000000000000000000000000000060
:1022500000000000000000183C3C3C181800181852
:10226000000000000000006666660000000000003C
:10227000000000000000006C6CFE6C6C6CFE6C6C6E
:10228000000000000018183C66060C183060663C20
:102290001818000000000E1B5B6E30180C76DAD8A0
:1022A000700000000000001C36361C06F66666DC76
:1022B00000000000000000181818000000000000D6
:1022C000000000000000003018180C0C0C0C0C185A
:1022D000183000000000000C181830303030301872
:1022E000180C000000000000006C38FE386C000084
:1022F00000000000000000000018187E1818000000
:10230000000000000000000000000000000038385D
:1023100030180000000000000000007E00000000F7
:10232000000000000000000000000000000038383D
:10233000000000000000006060303018180C0C062F
:102340000600000000000078CCECECCCDCDCCC78A3
:102350000000000000000030383E303030303030B7
:10236000000000000000003C66666030180C067E2D
:10237000000000000000003C666660386066663C55
:10238000000000000000000C0C6C6C6C66FE6060CD
:10239000000000000000007E0606063E6060301E61
:1023A0000000000000000038180C3E666666663CBF
:1023B000000000000000007E60303018180C0C0C8B
:1023C000000000000000003C66666E3C7666663CDD
:1023D000000000000000003C666666667C30181C49
:1023E000000000000000000000383800000038380D
:1023F00000000000000000000038380000003838FD
:10240000301800000000006030180C060C18306016
:10241000000000000000000000007E007E000000C0
:1024200000000000000000060C18306030180C0698
:10243000000000000000003C666630181800181804
:10244000000000000000007EC3C3F3DBDBF303FEEB
:1024500000000000000000183C6666667E66666646
:10246000000000000000003E6666663E6666663E4E
:10247000000000000000003C666606060666663C3A
:10248000000000000000001E366666666666361EA6
:10249000000000000000007E0606063E0606067EDE
:1024A000000000000000007E0606063E0606060646
:1024B000000000000000003C666606067666667C4A
:1024C00000000000000000666666667E666666665E
:1024D000000000000000003C181818181818183CDC
:1024E0000000000000000060606060606066663CA4
:1024F00000000000000000666636361E363666664E
:102500000000000000000006060606060606067E1D
:1025100000000000000000C6C6EED6D6D6C6C6C66D
:1025200000000000000000C6C6CEDEF6E6C6C6C645
:10253000000000000000003C666666666666663C59
:10254000000000000000003E6666663E06060606C5
:10255000000000000000003C666666666666663C39
:10256000306000000000003E6666663E36666666C5
:10257000000000000000003C66060C183060663C5D
:10258000000000000000007E18181818181818180D
:102590000000000000000066666666666666663CCF
:1025A00000000000000000666666666666663C180D
:1025B00000000000000000C6C6C6D6D6D66C6C6C03
:1025C0000000000000000066662C1818346666667D
:1025D00000000000000000666666663C18181818C7
:1025E000000000000000007E606030180C06067ECF
:1025F000000000000000003C0C0C0C0C0C0C0C0C3F
:102600000C0C3C0000000006060C0C181830306062
:10261000600000000000003C30303030303030309E
:1026200030303C0000183C66000000000000000054
:10263000000000000000000000000000000000009A
:102640000000FF00001C1830000000000000000027
:102650000000000000000000003C60607C66667CBA
:102660000000000000000006063E66666666663EE4
:102670000000000000000000003C66060606663C04
:102680000000000000000060607C66666666667C94
:102690000000000000000000003C66667E06063C6C
:1026A00000000000000000780C0C0C7E0C0C0C0CE0
:1026B0000000000000000000007C66666666667C24
:1026C00060603E0000000006063E6666666666665E
:1026D0000000000000001818001E18181818187EB6
:1026E0000000000000003030003C3030303030302E
:1026F00030301E0000000006066666361E3666662E
:10270000000000000000001E181818181818187E85
:102710000000000000000000007ED6D6D6D6D6C647
:102720000000000000000000003E66666666666607
:102730000000000000000000003C66666666663C23
:102740000000000000000000003E66666666663E0F
:102750000606060000000000007C66666666667C71
:1027600060606000000000000066760E0606060647
:102770000000000000000000007C06063C60603E97
:10278000000000000000000C0C7E0C0C0C0C0C78FF
:102790000000000000000000006666666666667C59
:1027A00000000000000000000066666666663C18D7
:1027B000000000000000000000C6D6D6D6D66C6C23
:1027C00000000000000000000066663C183C6666E1
:1027D0000000000000000000006666666666663C59
:1027E00030180F0000000000007E6030180C067EDC
:1027F00000000000000000301818180C060C181813
:1028000018300000000000181818181818181818A8
:10281000181818000000000C18181830603018182C
:10282000180C00000000008EDB71000000000000AA
:10283000000000000000000000000000010203048E
:102840000607080900000000010203046C280008C4
:102850000000002020000000AC1E00088C280008AA
:1028600020000020C8040000BC1E0008000000007A
:102870000100000000000000000000000100000056
:0C288000100000000000000000A24A044C
:0400000508000131BD
:00000001FF
